:020000040800F2
:10000000000003207D210008390B00083B0B00088D
:100010003D0B00083F0B0008410B000800000000EA
:10002000000000000000000000000000430B00087A
:10003000450B000800000000470B0008490B0008B2
:10004000CD210008CD210008CD210008CD210008D8
:10005000CD210008CD210008CD210008CD210008C8
:10006000CD210008CD210008CD210008CD210008B8
:10007000CD210008CD210008CD210008CD210008A8
:10008000CD210008CD210008CD210008CD21000898
:10009000CD210008CD210008CD210008CD21000888
:1000A000CD210008CD210008CD210008CD21000878
:1000B000CD210008510B0008610B0008CD2100087C
:1000C000CD210008CD210008CD210008CD21000858
:1000D000CD210008CD210008CD210008CD21000848
:1000E000CD210008CD210008CD210008CD21000838
:1000F000CD210008CD210008CD210008CD21000828
:10010000CD210008CD210008CD210008CD21000817
:10011000CD210008CD210008CD210008CD21000807
:10012000CD210008CD210008CD210008CD210008F7
:10013000CD210008CD210008CD210008CD210008E7
:10014000CD210008CD210008CD210008CD210008D7
:10015000CD210008CD210008CD210008CD210008C7
:10016000CD210008CD210008CD210008CD210008B7
:10017000CD210008CD210008CD210008000000009D
:10018000CD210008CD210008CD210008CD21000897
:10019000CD210008CD210008CD210008CD21000887
:0C01A000CD210008CD210008CD21000871
:1001AC000348044B834202D0034B03B118477047FA
:1001BC000C0000200C000020000000000548064B3D
:1001CC001B1AD90F01EBA301491002D0034B03B149
:1001DC00184770470C0000200C00002000000000A5
:1001EC0010B5064C237843B9FFF7DAFF044B13B173
:1001FC000448AFF300800123237010BD0C000020D5
:10020C0000000000D021000808B5044B1BB10449C4
:10021C000448AFF30080BDE80840CFE700000000C1
:10022C0010000020D021000870B50F4B0F4DAB42D1
:10023C00A3EB050607D0B610002455F8043B013497
:10024C009847A642F9D801F0BDFF094D094B5E1B3A
:10025C00AB424FEAA60606D0002455F8043B013405
:10026C009847A642F9D870BD102200081022000849
:10027C001022000814220008830730B547D0541E02
:10028C00002A3ED0CAB2034601E0013C39D303F840
:10029C00012B9D07F9D1032C2CD9CDB205EB0525EB
:1002AC000F2C05EB054535D9A4F1100222F00F0CEB
:1002BC0003F1100EE6444FEA121C1A46C2E900552F
:1002CC00C2E9025510327245F8D10CF1010214F05A
:1002DC000C0F03EB021204F00F0C13D0ACF104035F
:1002EC0023F003030433134442F8045B9342FBD121
:1002FC000CF003042CB1C9B21C4403F8011BA3423B
:10030C00FBD130BD64461346002CF4D1F9E703460B
:10031C001446C0E71A46A446E0E700BF53B94AB9F1
:10032C00002908BF00281CBF4FF0FF314FF0FF30F1
:10033C0000F06AB9ADF1080C6DE904CE00F006F8D6
:10034C00DDF804E0DDE9022304B070472DE9F04745
:10035C00089D0E4604460F46002B4AD194468C4508
:10036C00B2FA82F260D942B1C2F12003974020FA6E
:10037C0003F30CFA02FC1F4394404FEA1C4E1FFA85
:10038C008CF6B7FBFEF1230C0EFB117743EA074307
:10039C0001FB06F098420AD91CEB030301F1FF376D
:1003AC0080F01581984240F21281023963441B1A85
:1003BC00A4B2B3FBFEF00EFB103344EA034400FB83
:1003CC0006F6A6420AD91CEB040400F1FF3380F0B8
:1003DC000081A64240F2FD806444023840EA0140AC
:1003EC00A41B00211DB1D4400023C5E90043BDE886
:1003FC00F0878B4205D90DB1C5E9000100210846F3
:10040C00F5E7B3FA83F1002946D1B34202D3824215
:10041C0000F2F580841A66EB030201201746002DCA
:10042C00E5D0C5E90047E2E7002A40F09380A1EB54
:10043C000C034FEA1C471FFA8CFE0121B3FBF7F6A5
:10044C0007FB1630230C43EA00430EFB06F09842E0
:10045C0008D91CEB030306F1FF3802D2984200F2D4
:10046C00D08046461B1AA4B2B3FBF7F007FB10333F
:10047C0044EA03440EFB00FEA64508D91CEB040419
:10048C0000F1FF3302D2A64500F2B6801846A4EB69
:10049C000E0440EA0640A5E7C1F120078B4022FA82
:1004AC0007FC4CEA030C06FA01FE20FA07F426FAC4
:1004BC0007F344EA0E0400FA01F84FEA1C404FEA35
:1004CC001449B3FBF0FE1FFA8CF600FB1E3349EA0D
:1004DC0003430EFB06F9994502FA01F20BD91CEB0A
:1004EC0003030EF1FF3A80F08580994540F282803B
:1004FC00AEF1020E6344A3EB0909A4B2B9FBF0F30D
:10050C0000FB139944EA094403FB06F6A64208D9FA
:10051C001CEB040403F1FF3068D2A64266D9023BFF
:10052C00644443EA0E40A41BA0FB02E6B4427346AB
:10053C00B14652D34FD05DB1B8EB030264EB090462
:10054C0004FA07F722FA01F31F43CC40C5E9007403
:10055C0000214CE7C2F1200120FA01F30CFA02FC55
:10056C0026FA01F1964033434FEA1C471FFA8CFEE2
:10057C00B1FBF7F007FB1016190C41EA064100FB22
:10058C000EF68E4204FA02F408D91CEB010100F1BC
:10059C00FF382DD28E422BD902386144891B9BB275
:1005AC00B1FBF7F607FB161143EA014306FB0EF10C
:1005BC00994208D91CEB030306F1FF3814D2994277
:1005CC0012D9023E63445B1A46EA004136E73946CB
:1005DC00EDE6184602E7F045ADD2BEEB020366EB42
:1005EC000C060138B146A6E74646ECE7034698E709
:1005FC004046D3E7D6467EE76444023847E70846D0
:10060C000DE7023E63442DE7704700BF72B6FEE76C
:10061C0000B595B03022002108A8FFF72DFE00236D
:10062C00039304930593069307930193204A116C4B
:10063C0041F080511164126C02F080520192019AC7
:10064C0002931C4A136823F4404343F48043136021
:10065C00136803F440430293029B012308934FF465
:10066C008033099302230E934FF480020F920422DD
:10067C0010926022119212930323139308A800F096
:10068C0001FE88B90F23039302230493802305935F
:10069C004FF4805306930793012103A801F05CF8F3
:1006AC0020B915B05DF804FBFFF7B0FFFFF7AEFF04
:1006BC00003802400070004008B501F0BFFAFFF7A7
:1006CC00A7FF00F011F800F085F900F0BBF900F07D
:1006DC005BF800F0FDF800221146024800F05AF9D0
:1006EC00FEE700BFE821000830B58BB0002405946C
:1006FC0006940794089409940194214B1A6B42F0C8
:10070C0080021A631A6B02F080020192019A029421
:10071C001A6B42F001021A631A6B02F00102029288
:10072C00029A03941A6B42F040021A631A6B02F09D
:10073C0040020392039A04941A6B42F002021A6369
:10074C001B6B03F002030493049B0E4D01224FF428
:10075C000051284601F0CAF922464FF48041284640
:10076C0001F0C4F94FF4C043059301230693079499
:10077C00089405A9284601F0B5F80BB030BD00BFB0
:10078C00003802400018024008B51348134B0360B0
:10079C00134B436000238360C3604FF480420261BB
:1007AC0043618361C361036200F08EFB50B9002189
:1007BC00094800F023FD40B90021074800F040FD36
:1007CC0030B908BDFFF722FFF1E7FFF71FFFF3E792
:1007DC00FFF71CFFF5E700BF280000200054004085
:1007EC00A086010030B589B00023039304930593D0
:1007FC00069307930268144B9A4201D009B030BD9E
:10080C0000250195114C236B43F002032363236BEA
:10081C0003F002030193019BC0230393122304935F
:10082C00012305930423079303A9094801F05AF8FF
:10083C000295236C43F400132364236C03F400131C
:10084C000293029BDAE700BF0054004000380240DC
:10085C000004024010B584B00024039400F0F002B0
:10086C000001C3B242F00C018DF80C1042F00802EA
:10087C008DF80D2043F00C028DF80E2043F0080388
:10088C008DF80F3009E001224FF480410E4801F041
:10089C002DF9052001F0FEF90134032C11DC642341
:1008AC000093012303AA22447E21084800F0EAFBAE
:1008BC000128E8D000224FF48041034801F016F9DA
:1008CC00E7E704B010BD00BF00180240280000206C
:1008DC0008B54FF4FA7001F0DDF92820FFF7BAFFE4
:1008EC00052001F0D7F90220FFF7B4FF052001F035
:1008FC00D1F90620FFF7AEFF052001F0CBF90C2053
:10090C00FFF7A8FF052001F0C5F90120FFF7A2FFB2
:10091C00052001F0BFF908BD10B584B00024039484
:10092C0000F0F0020001C3B242F00D018DF80C1082
:10093C0042F009028DF80D2043F00D028DF80E20C7
:10094C0043F009038DF80F3009E001224FF4804188
:10095C000E4801F0CBF8052001F09CF90134032C72
:10096C0011DC64230093012303AA22447E2108484E
:10097C0000F088FB0128E8D000224FF480410348A6
:10098C0001F0B4F8E7E704B010BD00BF0018024056
:10099C002800002038B505461046032905D8DFE8A5
:1009AC0001F002080B0E42F08000FFF753FF002409
:1009BC000BE042F0C000F8E742F09400F5E742F09B
:1009CC00D400F2E7FFF7A8FF0134285D0028F9D125
:1009DC0038BD000000B587B0002302930393049345
:1009EC000593009301931548154A0260C722426093
:1009FC0083606322C2604FF400720261836101F074
:100A0C00ADFA90B94FF48053029302A90B4801F050
:100A1C00DEFA68B90023009301936946074801F098
:100A2C0055FB40B907B05DF804FBFFF7EFFDE9E7B4
:100A3C00FFF7ECFDEEE7FFF7E9FDF3E7C40000205C
:100A4C000004004000B587B0002302930393049385
:100A5C000593009301931648164A0260C722426020
:100A6C00836040F2E732C2604FF40072026183612E
:100A7C0001F074FA90B94FF48053029302A90C4818
:100A8C0001F0A5FA68B90023009301936946084860
:100A9C0001F01CFB40B907B05DF804FBFFF7B6FD95
:100AAC00E9E7FFF7B3FDEEE7FFF7B0FDF3E700BFB3
:100ABC007C0000200008004000B583B00368184A91
:100ACC00934205D0174A934216D003B05DF804FB4D
:100ADC0000210091144B1A6C42F002021A641B6C38
:100AEC0003F002030093009B0A461D2001F058F806
:100AFC001D2001F065F8E8E7002101910A4B1A6C02
:100B0C0042F004021A641B6C03F004030193019B72
:100B1C000A461E2001F044F81E2001F051F8D4E7DB
:100B2C00000400400008004000380240FEE7FEE7E9
:100B3C00FEE7FEE7FEE770477047704708B501F027
:100B4C0097F808BD08B5024801F0ECF808BD00BFE5
:100B5C00C400002008B5024801F0E4F808BD00BF4D
:100B6C007C00002000B583B0002100910C4B5A6C26
:100B7C0042F480425A645A6C02F480420092009A09
:100B8C0001911A6C42F080521A641B6C03F0805372
:100B9C000193019B072000F0F1FF03B05DF804FB0B
:100BAC000038024003685A6912F4806F01D10020AA
:100BBC0070476FF480625A6100230363202280F82F
:100BCC003D2080F83E30026C42F00402026480F852
:100BDC003C30012070472DE9F04106460C46174683
:100BEC0098463BE001F050F8069BC01A404502D8ED
:100BFC00B8F1000F32D1012D18D033689B6924EA6B
:100C0C0003039BB2B3FA83F35B099F4226D1002303
:100C1C003363202286F83D2086F83E30326C42F059
:100C2C002002326486F83C30012027E033685B698F
:100C3C0024EA03039BB2B3FA83F35B09E5E7336859
:100C4C005B6924EA030C1FFA8CFCBCFA8CFC4FEA9F
:100C5C005C1C674511D1B8F1FF3FC3D1C4F3074504
:100C6C00012DECD033689B6924EA030C1FFA8CFC31
:100C7C00BCFA8CFC4FEA5C1CEBE70020BDE8F08171
:100C8C002DE9F84305460E469046994653E01A68FE
:100C9C0042F400721A602B686FF480625A61002370
:100CAC002B63202285F83D2085F83E302A6C42F0DB
:100CBC0004022A6485F83C3001204AE000F0E4FF8D
:100CCC00A0EB0900404502D8B8F1000F33D1012F39
:100CDC0017D02B689B6926EA03039BB2003B18BF15
:100CEC00012343B300232B63202285F83D2085F894
:100CFC003E302A6C42F020022A6485F83C300120F8
:100D0C0027E02B685B6926EA03039BB2003B18BF04
:100D1C000123E6E72B689C6926EA0404A4B2003C94
:100D2C0018BF0124A4B12B685A6912F4806FAED19C
:100D3C00B8F1FF3FC2D1C6F30747012FEAD12B68A8
:100D4C005C6926EA0404A4B2003C18BF0124E9E75C
:100D5C000020BDE8F8830000F0B583B004460D46D2
:100D6C0016461F46C36A082B0DD0012B0BD013F56A
:100D7C00803F08D0036B122B0AD10268136843F42E
:100D8C008073136004E02268136843F4807313606B
:100D9C000097334600224FF001112046FFF71BFF4E
:100DAC0080B92369B3F5804F16D1236805F0FE0591
:100DBC001D613B46324613492046FFF761FFF8B9E7
:100DCC0003B0F0BD23681B6813F4807F02D04FF48E
:100DDC00007323640320F3E7EB11226803F006038E
:100DEC0043F0F00313613B46324607492046FFF7B8
:100DFC0047FF18B92368EDB21D61DAE70120DFE780
:100E0C000120DDE7020001000800010070B5044676
:100E1C000D46164623685B6913F0800F21D12046DE
:100E2C00FFF7C0FEF8B9B5F1FF3FF3D000F02CFF8F
:100E3C00801BA84201D8002DECD123685B6913F00C
:100E4C00800FE7D100232363202284F83D2084F80F
:100E5C003E30226C42F02002226484F83C300120A7
:100E6C0000E0002070BD0120FCE770B504460D4683
:100E7C00164623685B6913F0040F21D12046FFF757
:100E8C0091FEF8B9B5F1FF3FF3D000F0FDFE801BE9
:100E9C00A84201D8002DECD123685B6913F0040F34
:100EAC00E7D100232363202284F83D2084F83E30D0
:100EBC00226C42F02002226484F83C30012000E0D5
:100ECC00002070BD0120FCE7002800F0CC8070B53C
:100EDC00044690F83D30002B77D0242384F83D3025
:100EEC002268136823F0010313602268136843F42B
:100EFC00004313602268136823F40043136000F06E
:100F0C00E1FC62685A4B9A4264D85A4B98428CBFA7
:100F1C0000230123002B40F0A8805749A1FB00318E
:100F2C008B0C25686A6822F03F0242EA91426A60A3
:100F3C0021680A6A22F03F0266684D4DAE424FD8D6
:100F4C00013313430B622168CA6922F44F4222F029
:100F5C00FF026568464B9D424CD8431E6D00B3FBA7
:100F6C00F5F3013340F6FC70034278D0C3F30B0366
:100F7C001A43CA6121680B6823F0C003E269206A36
:100F8C00024313430B6021688B6823F4034323F063
:100F9C00FF032269E068024313438B602168CB682E
:100FAC0023F0FF036269A06902431343CB602268FC
:100FBC00136843F00103136000202064202384F89D
:100FCC003D30206384F83E0070BD80F83C30FFF764
:100FDC0009FC82E7294B98428CBF0023012399E737
:100FEC004FF4967505FB03F3254DA5FB03539B09A5
:100FFC000133A6E7A668BEB9431E05EB450CB3FB4F
:10100C00FCF30133C3F30B03B3FA83F35B0943BB68
:10101C00C6B9431E05EB4505B3FBF5F30133C3F32A
:10102C000B0343F40043A3E7431E05EB850C0CEBC9
:10103C008C0CB3FBFCF30133C3F30B03B3FA83F354
:10104C005B09E4E7431E05EB850505EB8505B3FB62
:10105C00F5F30133C3F30B0343F4404388E7042354
:10106C0086E7012384E7012070470120ACE700BF2D
:10107C00A08601007F841E0083DE1B43FF083D0019
:10108C00D34D62102DE9F04385B004460F469146CE
:10109C0098460C9E00F0F8FD054694F83D00C0B251
:1010AC00202804D00227384605B0BDE8F08300950F
:1010BC00192301224F492046FFF78DFD002840F0EF
:1010CC00928094F83C30012B00F08F80012384F83F
:1010DC003C3023681A6812F0010F03D11A6842F0F1
:1010EC0001021A602268136823F400631360212341
:1010FC0084F83D30102384F83E3000232364C4F878
:10110C002490A4F82A80638D23853B4BE3622B4605
:10111C00324639462046FFF71FFE0746002866D1A7
:10112C000023039323685A6903929B690393039BDF
:10113C0011E0236C042B01D00127B4E7226813685B
:10114C0043F400731360F7E72A4631462046FFF755
:10115C008CFE00282ED1238D002B36D02A4631460A
:10116C002046FFF753FE0028E3D1626A2368127809
:10117C001A61606A431C6362618D89B2013989B25C
:10118C006185238D013B9BB223852268516911F047
:10119C00040FD9D0002BD7D043781361636A013385
:1011AC006362638D9BB2013B9BB26385238D013BD4
:1011BC002385C9E7236C042B01D0012773E7226830
:1011CC00136843F400731360F7E72268136843F461
:1011DC0000731360202384F83D30002384F83E30E4
:1011EC0084F83C305FE702275DE702275BE70127C5
:1011FC0059E700BF020010000000FFFF90F83D30DF
:10120C00DBB2202B01D002207047242380F83D3024
:10121C000268136823F0010313600268536A23F019
:10122C00100353620268536A0B43536202681368DB
:10123C0043F001031360202380F83D3000207047F9
:10124C0090F83D30DBB2202B01D0022070472423D4
:10125C0080F83D300268136823F0010313600268C4
:10126C00536A9BB223F00F03194389B2516202688F
:10127C00136843F001031360202380F83D300020F5
:10128C0070470000002800F0E08170B582B0044681
:10129C00036813F0010F3BD09F4B9B6803F00C03CA
:1012AC00042B2CD09C4B9B6803F00C03082B21D0F7
:1012BC006368B3F5803F4FD0B3F5A02F52D0964B57
:1012CC001A6822F480321A601A6822F480221A609A
:1012DC006368002B50D000F0D7FC05468E4B1B6882
:1012EC0013F4003F14D100F0CFFC401B6428F5D957
:1012FC000320B1E1884B5B6813F4800FD8D0864B88
:10130C001B6813F4003F03D06368002B00F09F812F
:10131C00236813F0020F54D07F4B9B6813F00C0F13
:10132C003ED07D4B9B6803F00C03082B33D0E36855
:10133C00002B68D0794B01221A6000F0A5FC054601
:10134C00754B1B6813F0020F54D100F09DFC401B31
:10135C000228F5D903207FE16F4A136843F48033E8
:10136C001360B5E76C4B1A6842F480221A601A6855
:10137C0042F480321A60ABE700F086FC0546664BFF
:10138C001B6813F4003FC3D000F07EFC401B6428A4
:10139C00F5D9032060E1604B5B6813F4800FC6D174
:1013AC005D4B1B6813F0020F03D0E368012B40F078
:1013BC005081594A136823F0F803216943EAC103A9
:1013CC001360236813F0080F42D063696BB3534B5F
:1013DC000122C3F8802E00F057FC05464E4B5B6F84
:1013EC0013F0020F34D100F04FFC401B0228F5D94A
:1013FC00032031E1484A136823F0F803216943EADA
:10140C00C1031360DDE7454B00221A6000F03CFC81
:10141C000546414B1B6813F0020FD2D000F034FC90
:10142C00401B0228F5D9032016E13C4B0022C3F8DF
:10143C00802E00F029FC0546374B5B6F13F0020F32
:10144C0006D000F021FC401B0228F5D9032003E153
:10145C00236813F0040F77D02F4B1B6C13F0805FB5
:10146C0033D1002301932C4B1A6C42F080521A6436
:10147C001B6C03F080530193019B0125284B1B68C7
:10148C0013F4807F23D0A368012B34D0052B38D0E4
:10149C00214B1A6F22F001021A671A6F22F0040214
:1014AC001A67A368002B3DD000F0EEFB06461A4BE2
:1014BC001B6F13F0020F46D100F0E6FB801B41F2CC
:1014CC0088339842F3D90320C6E00025D6E7144AA6
:1014DC00136843F48073136000F0D6FB0646104B80
:1014EC001B6813F4807FCED100F0CEFB801B02284A
:1014FC00F5D90320B0E0084A136F43F001031367DA
:10150C00CFE7054B1A6F42F004021A671A6F42F0CC
:10151C0001021A67C5E700BF0038024000004742CD
:10152C000070004000F0B0FB0646524B1B6F13F0EE
:10153C00020F08D000F0A8FB801B41F288339842C0
:10154C00F3D9032088E0EDB9A369002B00F0838068
:10155C00484A926802F00C02082A51D0022B17D08C
:10156C00454B00221A6600F08FFB0446414B1B686A
:10157C0013F0007F42D000F087FB001B0228F5D946
:10158C00032069E03B4A136C23F080531364DBE7C0
:10159C00394B00221A6600F077FB0546354B1B6869
:1015AC0013F0007F06D000F06FFB401B0228F5D92A
:1015BC00032051E0E369226A1343626A43EA82130F
:1015CC00A26A5208013A43EA0243E26A43EA02631E
:1015DC00284A5360284B01221A6600F055FB04463A
:1015EC00244B1B6813F0007F06D100F04DFB001B51
:1015FC000228F5D903202FE000202DE000202BE05D
:10160C00012B2BD01B4B5B6803F48001E2699142E8
:10161C0026D103F03F02216A8A4223D1616A47F640
:10162C00C0721A40B2EB811F1ED103F44031A26A82
:10163C005208013AB1EB024F18D103F07063E26A21
:10164C00B3EB026F14D1002006E00120704701209B
:10165C0002E0012000E0002002B070BD0120FBE799
:10166C000120F9E70120F7E70120F5E70120F3E776
:10167C000120F1E7003802400000474208B5334B27
:10168C009B6803F00C03042B5BD0082B5BD12F4B16
:10169C005A6802F03F025B6813F4800F2CD02B4B7E
:1016AC005868C0F388104FEA401CBCEB000C6EEB82
:1016BC000E0E4FEA8E1343EA9C634FEA8C11B1EB8A
:1016CC000C0163EB0E03DB0043EA5173C90011EB11
:1016DC00000C43F10003590200234FEA4C2041EA6D
:1016EC00DC51FEF71BFE194B5B68C3F3014301335E
:1016FC005B00B0FBF3F008BD144B5868C0F38810C6
:10170C004FEA401CBCEB000C6EEB0E0E4FEA8E1336
:10171C0043EA9C634FEA8C11B1EB0C0163EB0E03B3
:10172C00DB0043EA5173C90011EB000C43F10003D9
:10173C00990200234FEA8C2041EA9C51FEF7EEFD02
:10174C00D1E70348D7E70348D5E700BF003802408C
:10175C0000127A000024F400002800F09B8070B581
:10176C000D4604464F4B1B6803F00F038B4208D207
:10177C00CBB24C4A1370136803F00F038B4240F04A
:10178C008B80236813F0020F17D013F0040F04D0D2
:10179C00454A936843F4E0539360236813F0080FB1
:1017AC0004D0414A936843F4604393603E4A936883
:1017BC0023F0F003A1680B439360236813F0010F2F
:1017CC0032D06368012B21D09A1E012A25D9364AC2
:1017DC00126812F0020F61D033498A6822F00302BA
:1017EC0013438B6000F050FA06462F4B9B6803F0B6
:1017FC000C036268B3EB820F16D000F045FA801B25
:10180C0041F288339842F0D9032042E0264A12680C
:10181C0012F4003FE0D101203BE0234A126812F0A1
:10182C00007FD9D1012034E01E4B1B6803F00F035D
:10183C00AB4207D9EAB21B4B1A701B6803F00F03BB
:10184C00AB422DD1236813F0040F06D0164A9368CF
:10185C0023F4E053E1680B439360236813F0080F03
:10186C0007D0114A936823F46043216943EAC1030A
:10187C009360FFF703FF0C4B9B68C3F303130B4AF6
:10188C00D35CD8400A4B18600A4B186800F0B0F9CA
:10189C00002070BD012070470120FAE70120F8E715
:1018AC000120F6E7003C024000380240F821000815
:1018BC000800002004000020014B1868704700BF8E
:1018CC000800002008B5FFF7F7FF044B9B68C3F333
:1018DC008223034AD35CD84008BD00BF00380240C5
:1018EC00F021000800230F2B00F2F68070B582B0B7
:1018FC0066E085684FEA430E032404FA0EF425EAE9
:10190C000405CC6804FA0EF42C438460446824EA81
:10191C0002044A68C2F300129A40224342605DE01E
:10192C00DC08083450F8242003F00705AD004FF014
:10193C000F0E0EFA05FE22EA0E0E0A69AA4042EAC2
:10194C000E0240F824205DE0092200E0002202FA99
:10195C000EF22A430234614D45F82420604A946803
:10196C006FEA0C0224EA0C054E6816F4801F01D0B5
:10197C004CEA04055A4CA560E46802EA04054E687A
:10198C0016F4001F01D04CEA0405554CE560646860
:10199C0002EA04054E6816F4003F01D04CEA040537
:1019AC004F4C6560246822404D6815F4803F01D08F
:1019BC004CEA04024A4C226001330F2B00F28A805D
:1019CC0001229A400C6804EA020C32EA0404F3D1B6
:1019DC004C6804F00304013C012C8AD94A6802F0DB
:1019EC000302032A09D0C4685D000322AA4024EA3A
:1019FC0002048A68AA402243C2604A6802F00302C9
:101A0C00022A8DD004684FEA430E032202FA0EF22A
:101A1C0024EA02044A6802F0030202FA0EF222439C
:101A2C0002604A6812F4403FC6D0002201922D4A4F
:101A3C00546C44F480445464526C02F4804201921D
:101A4C00019A9C08A51C254A52F8255003F0030E58
:101A5C004FEA8E0E0F2202FA0EF225EA0205224AF6
:101A6C0090423FF473AF02F58062904222D002F5AF
:101A7C008062904220D002F5806290421ED002F526
:101A8C00806290421CD002F5806290421AD002F51E
:101A9C008062904218D002F58062904216D002F516
:101AAC008062904214D002F5806290423FF44CAFB9
:101ABC000A224CE701224AE7022248E7032246E7C2
:101ACC00042244E7052242E7062240E707223EE7CC
:101ADC0008223CE702B070BD704700BF00380140DF
:101AEC00003C014000380240000002400AB1816114
:101AFC007047090481617047002807DB00F01F0262
:101B0C00400901239340024A42F82030704700BF3D
:101B1C0000E100E0002808DB0901C9B200F16040D7
:101B2C0000F5614080F80013704700F00F000901C8
:101B3C00C9B2014B1954704714ED00E000B500F028
:101B4C000700C0F1070CBCF1040F28BF4FF0040CC8
:101B5C00031D062B0FD9C31E4FF0FF3E0EFA0CF0DF
:101B6C0021EA000199400EFA03FE22EA0E0241EA34
:101B7C0002005DF804FB0023EEE70000074AD3687F
:101B8C0023F4E0631B041B0C000200F4E06003432D
:101B9C0043F0BF6343F40033D360704700ED00E0C3
:101BAC0010B50446054BD868C0F30220FFF7C6FFFA
:101BBC0001462046FFF7AEFF10BD00BF00ED00E070
:101BCC0008B5FFF799FF08BD0138B0F1807F0BD243
:101BDC004FF0E0235861054AF02182F823100020D1
:101BEC00986107221A6170470120704700ED00E0F0
:101BFC0010B504460E4B1A784FF47A73B3FBF2F31C
:101C0C000C4A1068B0FBF3F0FFF7DEFF68B90F2C3D
:101C1C0001D901200AE0002221464FF0FF30FFF7E6
:101C2C00BFFF054B1C60002000E0012010BD00BF71
:101C3C0000000020080000200400002008B50B4B19
:101C4C001A6842F400721A601A6842F480621A60D0
:101C5C001A6842F480721A600320FFF78FFF00208D
:101C6C00FFF7C6FFFEF77EFF002008BD003C0240D8
:101C7C00034A1168034B1B780B441360704700BF79
:101C8C000C01002000000020014B1868704700BFB9
:101C9C000C01002038B50446FFF7F6FF0546B4F1F9
:101CAC00FF3F02D0044B1B781C44FFF7EDFF401B99
:101CBC00A042FAD338BD00BF0000002010B4036A64
:101CCC00046A24F001040462846924F0F00C4CEAE8
:101CDC00021223F00A030B43826103625DF8044B8A
:101CEC00704710B4036A046A24F010040462846917
:101CFC0024F4704C4CEA023223F0A00343EA0113A3
:101D0C00826103625DF8044B7047836823F07003B3
:101D1C000B4343F00703836070477047704770476D
:101D2C007047704770B504460368DE681D6915F08E
:101D3C00020F10D016F0020F0DD06FF002021A61D4
:101D4C000123037703689B6913F0030F5ED0FFF741
:101D5C00E6FF0023237715F0040F12D016F0040FC2
:101D6C000FD023686FF004021A61022323772368D3
:101D7C009B6913F4407F4FD02046FFF7D0FF002320
:101D8C00237715F0080F12D016F0080F0FD0236828
:101D9C006FF008021A61042323772368DB6913F0C0
:101DAC00030F40D02046FFF7BAFF0023237715F02E
:101DBC00100F12D016F0100F0FD023686FF0100216
:101DCC001A61082323772368DB6913F4407F31D031
:101DDC002046FFF7A4FF0023237715F0010F02D054
:101DEC0016F0010F2DD115F0800F02D016F0800FD8
:101DFC002FD115F0400F02D016F0400F31D115F055
:101E0C00200F02D016F0200F33D170BDFFF786FFE4
:101E1C002046FFF785FF9CE72046FFF77FFF204613
:101E2C00FFF77EFFABE72046FFF778FF2046FFF772
:101E3C0077FFBAE72046FFF771FF2046FFF770FFE8
:101E4C00C9E723686FF001021A612046FFF765FFAE
:101E5C00C9E723686FF080021A61204600F07DF913
:101E6C00C7E723686FF040021A612046FFF759FF5D
:101E7C00C5E723686FF020021A61204600F06CF968
:101E8C00C3E700000368344A904212D0B0F1804F8F
:101E9C000FD0A2F57C4290420BD002F580629042AA
:101EAC0007D002F58062904203D002F5784290424E
:101EBC0003D123F070034A681343274A90422AD077
:101ECC00B0F1804F27D0A2F57C42904223D002F58E
:101EDC00806290421FD002F5806290421BD002F5C6
:101EEC007842904217D002F57052904213D002F50E
:101EFC00806290420FD002F5806290420BD0A2F526
:101F0C009832904207D002F58062904203D002F5DD
:101F1C008062904203D123F44073CA68134323F0C8
:101F2C0080034A69134303608B68C3620B68836246
:101F3C00094B984203D003F58063984201D10B6999
:101F4C00036301234361036913F0010F03D0036999
:101F5C0023F00103036170470000014040B310B54A
:101F6C00044690F83D30F3B1022384F83D3021460D
:101F7C0051F8040BFFF786FF012384F8463084F8F0
:101F8C003E3084F83F3084F8403084F8413084F897
:101F9C00423084F8433084F8443084F8453084F877
:101FAC003D30002010BD80F83C30FEF785FDDBE7AE
:101FBC000120704710B4846824F47F4C42EA032259
:101FCC000A4342EA0C0282605DF8044B704790F8B9
:101FDC003C30012B78D010B50446012380F83C30FE
:101FEC00022380F83D300268936823F47F4323F08A
:101FFC00770393600B68602B4CD023D8402B54D0C4
:10200C0011D8202B03D00AD80BB1102B05D11946AF
:10201C002068FFF77AFE002028E0012026E0302B14
:10202C00F5D0012022E0502B0AD1CA68496800681B
:10203C00FFF744FE50212068FFF767FE002015E0F3
:10204C00012013E0B3F5805F3AD0B3F5005F14D0F4
:10205C00702B37D1CB684A6889680068FFF7AAFFF4
:10206C002268936843F0770393600020012384F87F
:10207C003D30002384F83C3010BDCB684A68896839
:10208C000068FFF797FF2268936843F480439360DE
:10209C000020EBE7CA6849680068FFF722FE602160
:1020AC002068FFF732FE0020E0E7CA684968006844
:1020BC00FFF704FE40212068FFF727FE0020D5E73C
:1020CC000020D3E70120D1E70220704790F83C2094
:1020DC00012A3DD010B40346012280F83C20022294
:1020EC0080F83D2002685068946820F0700C0868F5
:1020FC0040EA0C0050601A68164882421AD0B2F1BD
:10210C00804F17D0A0F57C40824213D000F5806040
:10211C0082420FD000F5806082420BD000F57840EF
:10212C00824207D000F57050824203D0A0F5943063
:10213C00824204D124F08004496821439160012239
:10214C0083F83D20002083F83C005DF8044B704779
:10215C00022070470000014070477047034AD2F8D4
:10216C00883043F47003C2F88830704700ED00E00B
:10217C00DFF834D0FFF7F2FF0C480D490D4A00236D
:10218C0002E0D458C4500433C4188C42F9D30A4A20
:10219C000A4C002301E013600432A242FBD3FEF789
:1021AC0043F8FEF789FA7047000003200000002076
:1021BC000C000020182200080C0000201001002048
:1021CC00FEE70000F8B500BFF8BC08BC9E4670479F
:0C21DC00F8B500BFF8BC08BC9E46704778
:1021E800544553540000000000000000010203049D
:1021F80000000000000000000102030406070809AF
:0822080050E1FF7F010000001E
:0422100015020008AB
:04221400ED010008D0
:0C22180001000000100000000024F40091
:040000050800217D51
:00000001FF
